:020000040800F2
:1000000000000220C91400087104000873040008ED
:100010007504000877040008790400080000000057
:100020000000000000000000000000007B04000849
:100030007D040008000000007F040008810400081F
:1000400019150008191500081915000819150008D8
:1000500019150008191500081915000819150008C8
:1000600019150008191500081915000819150008B8
:1000700019150008191500081915000819150008A8
:100080001915000819150008191500081915000898
:100090001915000819150008191500081915000888
:1000A0001915000819150008191500081915000878
:1000B0001915000819150008191500081915000868
:1000C0001915000819150008191500081915000858
:1000D0001915000819150008191500081915000848
:1000E000191500081915000800000000191500086E
:1000F0001915000819150008191500081915000828
:100100001915000819150008191500081915000817
:100110001915000819150008191500081915000807
:1001200019150008191500081915000819150008F7
:1001300019150008191500081915000819150008E7
:1001400000000000000000000000000000000000AF
:1001500019150008191500081915000819150008C7
:1001600019150008191500081915000819150008B7
:1001700019150008191500081915000819150008A7
:100180001915000819150008191500081915000897
:100190001915000819150008191500081915000887
:1001A0001915000819150008191500081915000877
:1001B0001915000819150008191500081915000867
:1001C0001915000819150008191500081915000857
:1001D0001915000819150008191500081915000847
:1001E0001915000819150008191500081915000837
:1001F0001915000819150008191500081915000827
:100200001915000819150008191500081915000816
:100210001915000819150008191500081915000806
:10022000191500081915000819150008000000002C
:10023000191500081915000800000000191500081C
:1002400019150008191500081915000819150008D6
:1002500019150008191500081915000819150008C6
:1002600019150008191500081915000819150008B6
:1002700019150008191500081915000800000000DC
:1002800019150008191500081915000800000000CC
:08029000000000001915000830
:1002980010B5054C237833B9044B13B10448AFF3B8
:1002A80000800123237010BD100000200000000012
:1002B8007415000808B5034B1BB103490348AFF395
:1002C800008008BD0000000014000020741500081C
:1002D80030B587B0002401940294039404940594E3
:1002E800104BD3F8E02042F00102C3F8E020D3F825
:1002F800E03003F001030093009B0B4D22464FF4BE
:100308006061284601F02AF84FF4606301931123D5
:1003180002930394049401A9284600F00FFF07B044
:1003280030BD00BF004402580000025872B6FEE714
:1003380000B59DB04C22002109A801F00FF9202238
:10034800002101A801F00AF9022001F00DF80023AC
:1003580000931E4BDA6A22F00102DA62DB6A03F0CC
:10036800010300931A4A936923F4404343F48043FA
:100378009361936903F440430093009B144B9B697A
:1003880013F4005FFAD00223099301230C9340234E
:100398000D930023129309A800F052F988B93F235E
:1003A8000193002302930393049305930693079301
:1003B8000893012101A800F077FD20B91DB05DF870
:1003C80004FBFFF7B3FFFFF7B1FF00BF00040058BD
:1003D8000048025870B501F019F8FFF7A9FFFFF7B8
:1003E80077FF002427E0002613E04FF4806610E032
:1003F8004FF400660DE04FF4C0660AE04FF4206643
:1004080007E04FF4406604E04FF4606601E04FF403
:100418000076144D01224FF46061284600F09EFFDB
:1004280000223146284600F099FF4FF4FA7001F097
:100438002DF80134E4B2072CD3D8631E062BD2D88A
:1004480001A252F823F000BF17040008F3030008C4
:10045800F9030008FF030008050400080B0400085E
:100468001104000800000258FEE7FEE7FEE7FEE779
:10047800FEE770477047704708B500F0F5FF08BD04
:1004880082B0074BD3F8F42042F00202C3F8F420FC
:10049800D3F8F43003F002030193019B02B07047D4
:1004A80000440258274AD2F8883043F47003C2F84F
:1004B8008830254B1B6803F00F03062B06D8224A09
:1004C800136823F00F0343F0070313601F4B1A68E8
:1004D80042F001021A6000221A6119681C4A0A4097
:1004E8001A60194B1B6813F0080F06D0164A1368D8
:1004F80023F00F0343F007031360144B00229A61A3
:10050800DA611A62134999621349D9621349196366
:100518005A639963DA6319645A64196821F480216B
:1005280019601A660E4B1A680E4B1340B3F1005F40
:1005380003D20D4B0122C3F808210C4B43F2D2021F
:100548001A60704700ED00E0002000520044025895
:100558007FEDF6EA000202020000FF0180020101BD
:100568000010005C0000FFFF0080005100400052B6
:10057800002804DB0901C9B2044B1954704700F084
:100588000F000901C9B2024B1954704700E400E09A
:1005980014ED00E000B500F00700C0F1070CBCF155
:1005A800040F28BF4FF0040C031D062B0FD9C31EE0
:1005B8004FF0FF3E0EFA0CF021EA000199400EFAC6
:1005C80003FE22EA0E0241EA02005DF804FB002362
:1005D800EEE700000649CB6823F4E0631B041B0C1C
:1005E800000200F4E0600343024A1A43CA607047FD
:1005F80000ED00E00000FA0510B50446054BD86888
:10060800C0F30220FFF7C6FF01462046FFF7B0FF00
:1006180010BD00BF00ED00E00138B0F1807F0BD2C3
:100628004FF0E0235861054AF02182F8231000209A
:10063800986107221A6170470120704700ED00E0B9
:10064800002800F0188338B50446036813F0010F3A
:1006580025D0944A136903F03803926A102B15D0F9
:10066800182B0FD06368B3F5803F3FD0002B53D1D0
:100678008C4B1A6822F480321A601A6822F480229D
:100688001A6038E002F00302022AEBD1854B1B689E
:1006980013F4003F03D06368002B00F0EE82236858
:1006A80013F0020F00F0A1807E4A1369926A13F0DA
:1006B80038035AD0182B55D0E368002B00F0DE80A1
:1006C80078490A6822F0190213430B6000F0D8FE3B
:1006D8000546744B1B6813F0040F40F0AD8000F022
:1006E800CFFE401B0228F4D90320CDE26D4A1368DF
:1006F80043F48033136063682BB300F0C1FE0546F2
:10070800684B1B6813F4003FC9D100F0B9FE401BC9
:100718006428F5D90320B7E2B3F5A02F09D0614BBF
:100728001A6822F480321A601A6822F480221A6049
:10073800E1E75C4B1A6842F480221A601A6842F4B6
:1007480080321A60D7E700F09BFE0546554B1B68C0
:1007580013F4003FA3D000F093FE401B6428F5D9A2
:10076800032091E212F0030FA6D14E4B1B6813F041
:10077800040F03D0E368002B00F08182494A136814
:1007880023F01903E1680B43136000F079FE054676
:10079800444B1B6813F0040F06D100F071FE401B98
:1007A8000228F5D903206FE200F084FE41F203032A
:1007B800984212D82269402A07D03A494B6823F454
:1007C8007C3343EA02334B600FE0364A536823F424
:1007D8007C3343F40033536007E0324A536823F014
:1007E800FE43216943EA01635360236813F0100F45
:1007F80000F088802B4A136903F03803926A082BAB
:1008080056D0182B50D0E369002B00F0B880254A49
:10081800136843F08003136000F032FE0546214B55
:100828001B6813F4807F40F0888000F029FE401B8D
:100838000228F4D9032027E200F03CFE41F203032A
:10084800984212D82269402A07D016494B6823F4E7
:100858007C3343EA02334B60C7E7124A536823F4F8
:100868007C3343F400335360BFE70E4A536823F0E8
:10087800FE43216943EA01635360B6E7094A1368F6
:1008880023F00103136000F0FBFD0546054B1B68D0
:1008980013F0040FA9D000F0F3FD401B0228F5D98E
:1008A8000320F1E10044025802F00302012AAAD110
:1008B800A14B1B6813F4807F03D0E369802B40F0C1
:1008C800E08100F0F7FD41F20303984212D8226A52
:1008D800202A07D098494B6823F0F84343EA8263FB
:1008E8004B600FE0944A536823F0F84343F0804389
:1008F800536007E0904AD36823F07C53216A43EAA7
:100908000163D360236813F0080F60D06369002B7C
:1009180049D0894A536F43F00103536700F0B0FD93
:100928000546854B5B6F13F0020F50D100F0A8FD10
:10093800401B0228F5D90320A6E100F0BBFD41F2D7
:100948000303984212D8226A202A07D07A494B68B2
:1009580023F0F84343EA82634B60D3E7764A53684F
:1009680023F0F84343F080435360CBE7724AD368DF
:1009780023F07C53216A43EA0163D360C2E76E4ADD
:10098800136823F08003136000F07AFD05466A4B74
:100998001B6813F4807FB5D000F072FD401B02285D
:1009A800F5D9032070E1644A536F23F001035367BC
:1009B80000F066FD0546604B5B6F13F0020F06D032
:1009C80000F05EFD401B0228F5D903205CE1236896
:1009D80013F0200F29D0A3699BB1574A136843F439
:1009E8008053136000F04CFD0546534B1B6813F40D
:1009F800005F1AD100F044FD401B0228F5D90320FE
:100A080042E14D4A136823F48053136000F038FD27
:100A18000546494B1B6813F4005F06D000F030FD13
:100A2800401B0228F5D903202EE1236813F0040F98
:100A380021D1636A002B00F026813F4A126902F037
:100A48003802182A00F0EE80022B79D03A4A13684F
:100A580023F08073136000F013FD0446364B1B68C7
:100A680013F0007F00F0DC8000F00AFD001B022874
:100A7800F4D9032008E1314A136843F48073136002
:100A880000F0FEFC05462D4B1B6813F4807F06D151
:100A980000F0F6FC401B6428F5D90320F4E0A368B5
:100AA800012B0AD00BBB244B1A6F22F001021A67E4
:100AB8001A6F22F004021A6704E01F4A136F43F00A
:100AC80001031367A36833B300F0DAFC05461A4B39
:100AD8001B6F13F0020FACD100F0D2FC401B41F2A7
:100AE80088339842F3D90320CEE0052B09D0124B66
:100AF8001A6F22F001021A671A6F22F004021A67AD
:100B0800E0E70D4B1A6F42F004021A671A6F42F0C1
:100B180001021A67D6E700F0B3FC0546064B1B6FC7
:100B280013F0020F85D000F0ABFC401B41F2883374
:100B38009842F3D90320A7E000440258004802581D
:100B4800594A136823F08073136000F099FC054636
:100B5800554B1B6813F0007F06D000F091FC401B3A
:100B68000228F5D903208FE04F4B996A4F4A0A4073
:100B7800A16AE06A41EA00110A439A62226B013ACB
:100B8800C2F30802616B0139490289B20A43A16BB9
:100B98000139090401F4FE010A43E16B0139090630
:100BA80001F0FE410A431A63DA6A22F00102DA62AE
:100BB800596B3F4A0A40A16C42EAC1025A63DA6A99
:100BC80022F00C02216C0A43DA62DA6A22F002028D
:100BD800616C0A43DA62DA6A42F48032DA62DA6A0B
:100BE80042F40032DA62DA6A42F48022DA62DA6ABD
:100BF80042F00102DA621A6842F080721A6000F06C
:100C08003FFC0446284B1B6813F0007F06D100F018
:100C180037FC001B0228F5D9032035E0002033E01B
:100C2800002031E0204A916A106B012B2DD001F091
:100C38000303A26A93422AD1C1F30511E36A9942D8
:100C480027D1C0F30802236B013B9A4223D1C0F39A
:100C58004622636B013B9A421FD1C0F30642A36B45
:100C6800013B9A421BD1C0F30660E36B013B9842FB
:100C780017D1002008E001207047012004E001207E
:100C880002E0012000E0002038BD0120FCE701203F
:100C9800FAE70120F8E70120F6E70120F4E7012050
:100CA800F2E70120F0E700BF004402580CFCFFFF08
:100CB8000700FFFF744B1B6903F03803102B00F08B
:100CC800DE80182B0FD00BB1704870476E4B1B6835
:100CD80013F0200F00F0D5806B4B1B68C3F3C103E2
:100CE8006B48D840704710B4674B9A6A02F0030209
:100CF8009C6AC4F30510D96A01F001015B6BC3F368
:100D0800CC0301FB03F307EE903AF8EE677A14F48C
:100D18007C7F00F09480012A66D0022A00F092803D
:100D2800E2B107EE100AF8EE476A9FED5A6A86EEBE
:100D3800267A554B1B6BC3F3080306EE903AF8EE80
:100D4800666A9FED556A67EE867A76EEA77AF7EEC1
:100D5800006A77EEA67A27EE277A61E04A4B1B688D
:100D680013F0200F23D048490A68C2F3C102484B48
:100D7800D34007EE103AF8EE476A07EE100AB8EECD
:100D8800476A86EE867A0B6BC3F3080306EE903A41
:100D9800F8EE666A9FED406A67EE867A76EEA77A85
:100DA800F7EE006A77EEA67A27EE277A38E007EEA4
:100DB800100AF8EE476A9FED396A86EE267A324BBA
:100DC8001B6BC3F3080306EE903AF8EE666A9FEDD4
:100DD800326A67EE867A76EEA77AF7EE006A77EEE1
:100DE800A67A27EE277A1BE007EE100AF8EE476A84
:100DF8009FED286A86EE267A234B1B6BC3F3080304
:100E080006EE903AF8EE666A9FED236A67EE867AF8
:100E180076EEA77AF7EE006A77EEA67A27EE277ABB
:100E2800194B1B6BC3F34623013307EE903AF8EED8
:100E3800677AC7EE276AFCEEE67A17EE900A5DF845
:100E4800044B704707EE100AF8EE476A9FED146AE4
:100E580086EE267A0C4B1B6BC3F3080306EE903A1A
:100E6800F8EE666A9FED0C6A67EE867A76EEA77AE8
:100E7800F7EE006A77EEA67A27EE277AD0E70948D8
:100E880070470348704700BF0044025800093D00FE
:100E98000090D0030024744A000000390024744CE8
:100EA80020BCBE4B40787D01002800F0328170B52F
:100EB8000D4604469B4B1B6803F00F038B420BD275
:100EC800984A136823F00F030B431360136803F069
:100ED8000F038B4240F01F81236813F0040F0CD0DE
:100EE8002269914B9B6903F070039A4205D98E4998
:100EF8008B6923F070031A438A61236813F0080F83
:100F08000CD06269884BDB6903F070039A4205D9FB
:100F18008549CB6923F070031A43CA61236813F02B
:100F2800100F0CD0A269804BDB6903F4E0639A428E
:100F380005D97D49CB6923F4E0631A43CA61236864
:100F480013F0200F0CD0E269774B1B6A03F0700393
:100F58009A4205D974490B6A23F070031A430A624E
:100F6800236813F0020F0CD0E2686F4B9B6903F003
:100F78000F039A4205D96C498B6923F00F031A4372
:100F88008A61236813F0010F41D0674A936923F4FB
:100F98007063A1680B4393616368022B0AD0032B2B
:100FA80027D0012B2CD0604A126812F0040F06D10A
:100FB8000120ADE0126812F4003F00F0AE805A49FB
:100FC8000A6922F0070213430B6100F059FA06463A
:100FD800554B1B6903F038036268B3EBC20F16D098
:100FE80000F04EFA801B41F288339842F0D9032072
:100FF8008EE04D4A126812F0007FE0D1012087E0B0
:10100800494A126812F4807FD9D1012080E0236810
:1010180013F0020F0CD0E268434B9B6903F00F03F7
:101028009A4205D240498B6923F00F031A438A611B
:101038003C4B1B6803F00F03AB420AD9394A1368CB
:1010480023F00F032B431360136803F00F03AB4225
:1010580065D1236813F0040F0CD02269324B9B69C9
:1010680003F070039A4205D22F498B6923F070036D
:101078001A438A61236813F0080F0CD062692A4B5F
:10108800DB6903F070039A4205D22749CB6923F044
:1010980070031A43CA61236813F0100F0CD0A269B9
:1010A800214BDB6903F4E0639A4205D21E49CB6900
:1010B80023F4E0631A43CA61236813F0200F0CD0AD
:1010C800E269194B1B6A03F070039A4205D216496C
:1010D8000B6A23F070031A430A62FFF7EBFD12490B
:1010E8008B69C3F30323114AD35C03F01F03D84071
:1010F8008B6903F00F03D35C03F01F0320FA03F39B
:101108000B4A13600B4B18600B4B186800F056F92C
:1011180070BD012070470120FAE70120F8E701209F
:10112800F6E700BF00200052004402588C15000862
:1011380000000020040000200C000020F0B583B05F
:1011480000236BE085685E000324B44025EA0405AB
:10115800CC68B4402C438460456825EA0C054C688B
:10116800C4F300149C402C43446069E0DD08083552
:1011780050F8254003F0070C4FEA8C0C4FF00F0E87
:101188000EFA0CFE24EA0E0E0C6904FA0CF444EA7A
:101198000E0440F825406BE0092400E0002404FA1E
:1011A8000EF42C430CF1020C694D45F82C404FF01D
:1011B800B0442568D44325EA02064F6817F4801F17
:1011C80001D042EA05064FF0B0452E606D6804EA8A
:1011D80005064F6817F4001F01D042EA05064FF0D4
:1011E800B0456E60D5F8845004EA05064F6817F4D8
:1011F800003F01D042EA05064FF0B045C5F88460CB
:10120800D5F880502C404E6816F4803F01D042EA51
:1012180005044FF0B042C2F8804001330A6832FA40
:1012280003F400F092804FF0010C0CFA03FC1CEA66
:101238000202F2D04C6804F00304013C012C81D96D
:101248004C6804F00304032C0CD0C4685D004FF014
:10125800030C0CFA05FC24EA0C0C8C68AC4044EA3C
:101268000C04C4604C6804F00304022C3FF47EAF05
:1012780004684FEA430E4FF0030C0CFA0EFC24EA04
:101288000C0C4C6804F0030404FA0EF444EA0C0451
:1012980004604C6814F4403FBFD02E4CD4F8F4508E
:1012A80045F00205C4F8F450D4F8F44004F0020400
:1012B8000194019C4FEA930C0CF10205244C54F85C
:1012C800255003F0030E4FEA8E0E0F2404FA0EF495
:1012D80025EA0405204CA0423FF460AF04F5806481
:1012E800A04222D004F58064A04220D004F5806496
:1012F800A0421ED004F58064A0421CD004F580648E
:10130800A0421AD004F58064A04218D004F5806485
:10131800A04216D004F58064A04214D004F580647D
:10132800A0423FF439AF0A2439E7012437E7022401
:1013380035E7032433E7042431E705242FE706249F
:101348002DE707242BE7082429E703B0F0BD00BFE9
:101358000004005800440258000002580AB1816194
:101368007047090481617047134BDB6813F0040F61
:1013780007D1114BDB6803F0070383421AD0012021
:10138800704710B50C4AD36823F007030343D360B2
:1013980000F076F80446084B5B6813F4005F07D149
:1013A80000F06EF8001BB0F57A7FF4D9012000E058
:1013B800002010BD0020704700480258104B1B78D1
:1013C8000BB90120704710B504464FF47A70B0FB92
:1013D800F3F30C4A1068B0FBF3F0FFF71DF968B996
:1013E8000F2C01D901200AE0002221464FF0FF30DE
:1013F800FFF702F9044B1C60002000E0012010BD3B
:1014080008000020040000200C00002010B5032074
:10141800FFF7E0F8FFF74EFC0F498B69C3F303238E
:101428000E4AD35C03F01F03D8408B6903F00F0307
:10143800D35C03F01F0320FA03F3094A1360094B36
:1014480018600F20FFF7BAFF10B10124204610BD25
:101458000446FFF715F8F9E7004402588C15000810
:101468000000002004000020034B1B78034A116889
:101478000B441360704700BF080000202C000020B8
:10148800014B1868704700BF2C00002038B504468F
:10149800FFF7F6FF0546B4F1FF3F02D0044B1B7877
:1014A8001C44FFF7EDFF401BA042FAD338BD00BF34
:1014B80008000020014B1868000C70470010005C01
:1014C800DFF834D0FEF7EEFF0C480D490D4A002333
:1014D80002E0D458C4500433C4188C42F9D30A4AE1
:1014E8000A4C002301E013600432A242FBD300F04F
:1014F80011F8FEF76FFF704700000220000000207F
:1015080010000020A4150008100000203000002062
:10151800FEE7000070B50D4D0D4C641BA4100026AD
:10152800A64209D10B4D0C4C00F020F8641BA41006
:101538000026A64205D170BD55F8043B98470136F0
:10154800EEE755F8043B98470136F2E79C1500088A
:101558009C1500089C150008A015000802440346C5
:10156800934200D1704703F8011BF9E7F8B500BFB3
:10157800F8BC08BC9E467047F8B500BFF8BC08BC6C
:041588009E467047C4
:10158C00000000000102030401020304060708091D
:04159C00BD02000884
:0415A00099020008A4
:1015A4000090D0030090D003010000001000000060
:04000005080014C912
:00000001FF
