:020000040800F2
:1000000000000220BD4100087D0C00087F0C0008A4
:10001000810C0008830C0008850C0008000000001B
:10002000000000000000000000000000870C000835
:10003000890C0008000000008B0C00088D0C0008E3
:100040000D4200080D4200080D4200080D42000854
:100050000D4200080D4200080D4200080D42000844
:100060000D4200080D4200080D4200080D42000834
:100070000D4200080D4200080D4200080D42000824
:100080000D4200080D4200080D4200080D42000814
:100090000D4200080D4200080D4200080D42000804
:1000A0000D4200080D4200080D4200080D420008F4
:1000B0000D4200080D4200080D4200080D420008E4
:1000C0000D4200080D4200080D4200080D420008D4
:1000D0000D4200080D4200080D4200080D420008C4
:1000E0000D4200080D420008000000000D4200080B
:1000F0000D4200080D4200080D4200080D420008A4
:100100000D4200080D4200080D4200080D42000893
:100110000D4200080D4200080D4200080D42000883
:100120000D4200080D4200080D4200080D42000873
:100130000D4200080D4200080D4200080D42000863
:1001400000000000000000000000000000000000AF
:100150000D4200080D4200080D4200080D42000843
:100160000D4200080D4200080D4200080D42000833
:100170000D4200080D4200080D4200080D42000823
:100180000D4200080D4200080D4200080D42000813
:100190000D4200080D4200080D4200080D42000803
:1001A0000D4200080D4200080D4200080D420008F3
:1001B0000D4200080D4200080D4200080D420008E3
:1001C0000D4200080D4200080D4200080D420008D3
:1001D0000D4200080D4200080D4200080D420008C3
:1001E0000D4200080D4200080D4200080D420008B3
:1001F0000D4200080D4200080D4200080D420008A3
:100200000D4200080D4200080D4200080D42000892
:100210000D4200080D4200080D4200080D42000882
:100220000D4200080D4200080D42000800000000C9
:100230000D4200080D420008000000000D420008B9
:100240000D4200080D4200080D4200080D42000852
:100250000D4200080D4200080D4200080D42000842
:100260000D4200080D4200080D4200080D42000832
:100270000D4200080D4200080D4200080000000079
:100280000D4200080D4200080D4200080000000069
:08029000000000000D4200080F
:1002980010B5054C237833B9044B13B10448AFF3B8
:1002A80000800123237010BD100000200000000012
:1002B8006842000808B5034B1BB103490348AFF374
:1002C800008008BD000000001400002068420008FB
:1002D80053B94AB9002908BF00281CBF4FF0FF31A5
:1002E8004FF0FF3000F074B9ADF1080C6DE904CEA1
:1002F80000F006F8DDF804E0DDE9022304B07047F9
:100308002DE9F047089D04468E46002B4DD18A42C0
:10031800944669D9B2FA82F252B101FA02F3C2F1F3
:10032800200120FA01F10CFA02FC41EA030E944084
:100338004FEA1C48210CBEFBF8F61FFA8CF708FBA5
:1003480016E341EA034306FB07F199420AD91CEB7D
:10035800030306F1FF3080F01F81994240F21C81AF
:10036800023E63445B1AA4B2B3FBF8F008FB1033F7
:1003780044EA034400FB07F7A7420AD91CEB04042C
:1003880000F1FF3380F00A81A74240F207816444FC
:10039800023840EA0640E41B00261DB1D440002381
:1003A800C5E900433146BDE8F0878B4209D9002DE5
:1003B80000F0EF800026C5E9000130463146BDE86F
:1003C800F087B3FA83F6002E4AD18B4202D38242D9
:1003D80000F2F980841A61EB030301209E46002D88
:1003E800E0D0C5E9004EDDE702B9FFDEB2FA82F2DD
:1003F800002A40F09280A1EB0C014FEA1C471FFA3B
:100408008CFE0126200CB1FBF7F307FB131140EA21
:1004180001410EFB03F0884208D91CEB010103F1EE
:10042800FF3802D2884200F2CB804346091AA4B2B0
:10043800B1FBF7F007FB101144EA01440EFB00FE84
:10044800A64508D91CEB040400F1FF3102D2A645E9
:1004580000F2BB800846A4EB0E0440EA03409CE788
:10046800C6F12007B34022FA07FC4CEA030C20FA35
:1004780007F401FA06F31C43F9404FEA1C4900FA55
:1004880006F3B1FBF9F8200C1FFA8CFE09FB1811D2
:1004980040EA014108FB0EF0884202FA06F20BD945
:1004A8001CEB010108F1FF3A80F08880884240F295
:1004B8008580A8F102086144091AA4B2B1FBF9F0D9
:1004C80009FB101144EA014100FB0EFE8E4508D9D4
:1004D8001CEB010100F1FF346CD28E456AD9023859
:1004E800614440EA0840A0FB0294A1EB0E01A1423E
:1004F800C846A64656D353D05DB1B3EB080261EBAC
:100508000E0101FA07F722FA06F3F1401F43C5E985
:10051800007100263146BDE8F087C2F12003D840BB
:100528000CFA02FC21FA03F3914001434FEA1C47FD
:100538001FFA8CFEB3FBF7F007FB10360B0C43EAEF
:10054800064300FB0EF69E4204FA02F408D91CEB9F
:10055800030300F1FF382FD29E422DD9023863449D
:100568009B1B89B2B3FBF7F607FB163341EA03413D
:1005780006FB0EF38B4208D91CEB010106F1FF388C
:1005880016D28B4214D9023E6144C91A46EA004683
:1005980038E72E46284605E70646E3E61846F8E615
:1005A8004B45A9D2B9EB020864EB0C0E0138A3E75E
:1005B8004646EAE7204694E74046D1E7D0467BE73F
:1005C800023B614432E7304609E76444023842E7B7
:1005D800704700BFF0B58DB00024079408940994C3
:1005E8000A940B945B4BD3F8E02042F00102C3F865
:1005F800E020D3F8E02002F001020192019AD3F83A
:10060800E02042F00202C3F8E020D3F8E02002F034
:1006180002020292029AD3F8E02042F00402C3F8E0
:10062800E020D3F8E02002F004020392039AD3F802
:10063800E02042F00802C3F8E020D3F8E02002F0FE
:1006480008020492049AD3F8E02042F01002C3F89A
:10065800E020D3F8E02002F010020592059AD3F8C2
:10066800E02042F08002C3F8E020D3F8E03003F045
:1006780080030693069B384D01224FF4606128469B
:1006880002F0CBFB4FF4606307931123089309949E
:100698000A9407A9284602F0A9FA05F580650122FF
:1006A8004FF48051284602F0B8FB4FF48057079763
:1006B8000126089609940A9407A9284602F096FA92
:1006C80005F5006532463946284602F0A6FB07972D
:1006D800089609940A9407A9284602F087FA1F4F3A
:1006E80022464FF40051384602F097FB4FF400536E
:1006F8000793089609940A9407A9384602F076FAEF
:1007080022464021284602F088FB4023079308969A
:1007180009940A9407A9284602F068FA80230793E7
:100728000894099407A9284602F060FA1023079351
:100738000894099407A90A4802F058FA4FF480432C
:1007480007930894099407A9384602F04FFA0DB0A8
:10075800F0BD00BF004402580000025800080258CB
:100768000010025808B572B600F048F9FEE700001C
:1007780008B51548154B03604FF416534360002322
:100788008360C36003610C2242618361C3610362B9
:100798004362836203F08FFB70B900210A4803F0BB
:1007A80002FC58B90021084803F022FC40B9064869
:1007B80003F0DAFB30B908BDFFF7D4FFFFF7D2FF2B
:1007C800FFF7D0FFFFF7CEFF4C01002000140140D7
:1007D80008B51348134B0360A3F17863A3F57D2391
:1007E800A3F64F634360002383600122C260036164
:1007F80043618361C361036202F032FD50B9002195
:10080800074802F063FE38B90021054802F08CFE63
:1008180020B908BDFFF7A6FFFFF7A4FFFFF7A2FF67
:100828002C0000200054004008B51348134B036007
:10083800A3F17863A3F57E23A3F24F23436000233B
:1008480083600122C260036143618361C361036203
:1008580002F006FD50B90021074802F037FE38B90A
:100868000021054802F060FE20B908BDFFF77AFFB5
:10087800FFF778FFFFF776FF780000200058004068
:1008880008B51348134B03604FF4800343600023FB
:1008980083600722C260036143614FF08062826116
:1008A800C361036243628362C3624FF08042426362
:1008B8008363C363036443648364C36403654365F8
:1008C800836503F0C3FB00B908BDFFF74BFF00BF0A
:1008D800C40000200038004000B59DB04C22002123
:1008E80009A803F0B5FC2022002101A803F0B0FC00
:1008F800022002F099FA00230093254B9A6942F4EA
:1009080040429A619B6903F440430093214BDA6AA1
:1009180042F00102DA62DB6A03F001030093009BF4
:100928001B4B9B6913F4005FFAD0012309934FF422
:1009380080330A930223129313931493502215922F
:100948001693179318930C23199300231A931B9348
:1009580009A800F08FFBB8B93F2301930323029342
:1009680000230393082304934023059306934FF42D
:1009780080620792089304210DEB010000F0AEFF9E
:1009880020B91DB05DF804FBFFF7ECFEFFF7EAFEA7
:10099800004802580004005800B589B002F096FAE1
:1009A800FFF79AFFFFF716FEFFF7E2FEFFF710FFCB
:1009B800FFF73AFFFFF764FF00F050F818B1012085
:1009C80000F028F8FEE7002000F024F80122114684
:1009D8000DF11F0000F016F900F040F80028F5D0DE
:1009E800684600F021F9FBE708B501224FF4606181
:1009F800014802F012FA08BD0000025808B5FFF7D6
:100A0800F3FF00224FF40061014802F006FA08BD26
:100A18000000025810B50446FFF7E6FF012C0CD081
:100A2800022C11D014B1FFF79DFE05E000224FF40F
:100A38008061094802F0F1F910BD00224FF400610D
:100A4800054802F0EAF9F7E700224FF4007102487E
:100A580002F0E3F9F0E700BF0000025808B5802172
:100A6800024802F0D3F900B1012008BD000C025879
:100A780000B585B001230293019200910246182126
:100A8800054802F04BFC032803D0002005B05DF8B0
:100A980004FB0420FAE700BF7800002000B585B009
:100AA8004FF0FF3302930192009101230246D021B7
:100AB800054802F033FC032803D0002005B05DF898
:100AC80004FB0420FAE700BF7800002070B584B06A
:100AD8000446022203A93B20FFF7E0FF0646022254
:100AE80002A93D20FFF7DAFF0546022201A93F20AF
:100AF800FFF7D4FF042D18BF042E19D0042815D0F1
:100B08009DF80C309DF80D1041EA03219DF808303E
:100B18009DF8092042EA03229DF804009DF805305B
:100B280043EA002321806280A380002004B070BDC6
:100B38000420FBE770B584B00446022201A94720CF
:100B4800FFF7ACFF0646022203A94320FFF7A6FFE2
:100B58000546022202A94520FFF7A0FF042D18BF71
:100B6800042E19D0042815D09DF80C309DF80D10CE
:100B780041EA03219DF808309DF8092042EA032242
:100B88009DF804009DF8053043EA0023E1802281A6
:100B98006381002004B070BD0420FBE770B584B009
:100BA8000446022203A90420FFF762FF0646022238
:100BB80002A90620FFF75CFF0546022201A90820CA
:100BC800FFF756FF042D18BF042E19D0042815D09E
:100BD8009DF80C309DF80D1041EA03219DF808306E
:100BE8009DF8092042EA03229DF804009DF805308B
:100BF80043EA0023A181E2812382002004B070BD72
:100C08000420FBE708B513468AB20146054803F0FD
:100C180084F8034610B1032802D10223184608BD00
:100C28000123FBE74C0100202DE9F04104464FF079
:100C38000008071D3846FFF749FF06463846FFF704
:100C480079FF05463846FFF7A9FF0746A4F818803C
:100C5800A4F81A8002F074F92060042E18BF042D3D
:100C680006D0042F02D00020BDE8F0810320FBE766
:100C78000320F9E7FEE7FEE7FEE7FEE7FEE7704739
:100C88007047704708B502F04FF908BD82B0074BAE
:100C9800D3F8F42042F00202C3F8F420D3F8F43079
:100CA80003F002030193019B02B07047004402580D
:100CB80010B5B8B00446002133913491359136917E
:100CC8003791BC2204A803F0C3FA2368344A93423C
:100CD80004D0344A934231D038B010BD082304936D
:100CE80004A801F097F830BB2F4CD4F8E03043F05B
:100CF8000203C4F8E030D4F8E03003F002030093B4
:100D0800009BC023339312233493002335933693E7
:100D18000423379333A9254801F068FFD4F8E83055
:100D280043F40013C4F8E830D4F8E83003F40013AF
:100D38000193019BD0E7FFF715FDD5E7082304933E
:100D480004A801F067F838BB174CD4F8E03043F03A
:100D58000203C4F8E030D4F8E03003F00203029351
:100D6800029B4FF44063339312233493002335934B
:100D780036930423379333A90C4801F037FFD4F88E
:100D8800E83043F48003C4F8E830D4F8E83003F4DA
:100D980080030393039B9FE7FFF7E4FCD4E700BFBE
:100DA8000054004000580040004402580004025813
:100DB80010B5B6B004460021319132913391349187
:100DC8003591BC2202A803F043FA2268204B9A42CC
:100DD80001D036B010BD4FF4805202920223039323
:100DE800102104910421059106930793C0230893C9
:100DF800199202A801F00EF838BB164BD3F8E82078
:100E080042F48042C3F8E820D3F8E82002F4804294
:100E18000092009AD3F8E02042F00202C3F8E020E2
:100E2800D3F8E03003F002030193019B4FF46043D1
:100E3800319302233293002333933493052335935C
:100E480031A9054801F0D2FEC3E7FFF78BFCD4E7D0
:100E580000380040004402580004025810B5B6B0EB
:100E68000446002131913291339134913591BC225D
:100E780002A803F0EDF922681A4B9A4201D036B065
:100E880010BD0123029302A800F0C4FF30BB164B2B
:100E9800D3F8F02042F02002C3F8F020D3F8F02075
:100EA80002F020020092009AD3F8E02042F00402F7
:100EB800C3F8E020D3F8E03003F004030193019B6A
:100EC800C0233193022332930023339334930723AF
:100ED800359331A9054801F089FED0E7FFF742FCB8
:100EE800D5E700BF0014014000440258000802582A
:100EF800274AD2F8883043F47003C2F88830254B6B
:100F08001B6803F00F03062B06D8224A136823F048
:100F18000F0343F0070313601F4B1A6842F00102E6
:100F28001A6000221A6119681C4A0A401A60194B93
:100F38001B6813F0080F06D0164A136823F00F0336
:100F480043F007031360144B00229A61DA611A62B6
:100F5800134999621349D962134919635A6399630A
:100F6800DA6319645A64196821F4802119601A66D1
:100F78000E4B1A680E4B1340B3F1005F03D20D4BB2
:100F88000122C3F808210C4B43F2D2021A607047C1
:100F980000ED00E000200052004402587FEDF6EA20
:100FA800000202020000FF01800201010010005C43
:100FB8000000FFFF00800051004000520649CB6846
:100FC80023F4E0631B041B0C000200F4E0600343FD
:100FD800024A1A43CA60704700ED00E00000FA05B3
:100FE80000B5174BDB68C3F30223C3F1070CBCF150
:100FF800040F28BF4FF0040C03F1040EBEF1060FD6
:1010080014D9033B4FF0FF3E0EFA0CFC21EA0C0109
:1010180099400EFA03F322EA03031943002807DB79
:101028000901C9B2074B19545DF804FB0023E9E72D
:1010380000F00F000901C9B2034B1954F4E700BFCF
:1010480000ED00E000E400E014ED00E00138B0F14C
:10105800807F0BD24FF0E0235861054AF02182F8D7
:1010680023100020986107221A61704701207047F9
:1010780000ED00E0002800F0188338B50446036846
:1010880013F0010F25D0944A136903F03803926ACC
:10109800102B15D0182B0FD06368B3F5803F3FD0C5
:1010A800002B53D18C4B1A6822F480321A601A68CC
:1010B80022F480221A6038E002F00302022AEBD1FF
:1010C800854B1B6813F4003F03D06368002B00F0C6
:1010D800EE82236813F0020F00F0A1807E4A1369A4
:1010E800926A13F038035AD0182B55D0E368002BB6
:1010F80000F0DE8078490A6822F0190213430B6079
:1011080001F01EFF0546744B1B6813F0040F40F0F6
:10111800AD8001F015FF401B0228F4D90320CDE271
:101128006D4A136843F48033136063682BB301F08E
:1011380007FF0546684B1B6813F4003FC9D101F04F
:10114800FFFE401B6428F5D90320B7E2B3F5A02FB2
:1011580009D0614B1A6822F480321A601A6822F4A6
:1011680080221A60E1E75C4B1A6842F480221A6018
:101178001A6842F480321A60D7E701F0E1FE0546AA
:10118800554B1B6813F4003FA3D001F0D9FE401B58
:101198006428F5D9032091E212F0030FA6D14E4B33
:1011A8001B6813F0040F03D0E368002B00F0818262
:1011B800494A136823F01903E1680B43136001F0EF
:1011C800BFFE0546444B1B6813F0040F06D101F01F
:1011D800B7FE401B0228F5D903206FE201F0B6FEE6
:1011E80041F20303984212D82269402A07D03A49AB
:1011F8004B6823F47C3343EA02334B600FE0364AF2
:10120800536823F47C3343F40033536007E0324AD5
:10121800536823F0FE43216943EA0163536023685E
:1012280013F0100F00F088802B4A136903F038037D
:10123800926A082B56D0182B50D0E369002B00F087
:10124800B880254A136843F08003136001F078FEE4
:101258000546214B1B6813F4807F40F0888001F01D
:101268006FFE401B0228F4D9032027E201F06EFE2E
:1012780041F20303984212D82269402A07D016493E
:101288004B6823F47C3343EA02334B60C7E7124AC6
:10129800536823F47C3343F400335360BFE70E4AAA
:1012A800536823F0FE43216943EA01635360B6E7BC
:1012B800094A136823F00103136001F041FE054653
:1012C800054B1B6813F0040FA9D001F039FE401B31
:1012D8000228F5D90320F1E10044025802F0030284
:1012E800012AAAD1A14B1B6813F4807F03D0E369BC
:1012F800802B40F0E08101F029FE41F2030398427F
:1013080012D8226A202A07D098494B6823F0F8435C
:1013180043EA82634B600FE0944A536823F0F84332
:1013280043F08043536007E0904AD36823F07C532E
:10133800216A43EA0163D360236813F0080F60D081
:101348006369002B49D0894A536F43F001035367FF
:1013580001F0F6FD0546854B5B6F13F0020F50D187
:1013680001F0EEFD401B0228F5D90320A6E101F0AB
:10137800EDFD41F20303984212D8226A202A07D0D1
:101388007A494B6823F0F84343EA82634B60D3E71A
:10139800764A536823F0F84343F080435360CBE721
:1013A800724AD36823F07C53216A43EA0163D3600D
:1013B800C2E76E4A136823F08003136001F0C0FD92
:1013C80005466A4B1B6813F4807FB5D001F0B8FD61
:1013D800401B0228F5D9032070E1644A536F23F0BB
:1013E8000103536701F0ACFD0546604B5B6F13F0DA
:1013F800020F06D001F0A4FD401B0228F5D90320F6
:101408005CE1236813F0200F29D0A3699BB1574AE8
:10141800136843F48053136001F092FD0546534B63
:101428001B6813F4005F1AD101F08AFD401B0228E3
:10143800F5D9032042E14D4A136823F48053136021
:1014480001F07EFD0546494B1B6813F4005F06D08A
:1014580001F076FD401B0228F5D903202EE1236810
:1014680013F0040F21D1636A002B00F026813F4A54
:10147800126902F03802182A00F0EE80022B79D0A7
:101488003A4A136823F08073136001F059FD04464B
:10149800364B1B6813F0007F00F0DC8001F050FD34
:1014A800001B0228F4D9032008E1314A136843F4E9
:1014B8008073136001F044FD05462D4B1B6813F43F
:1014C800807F06D101F03CFD401B6428F5D903203C
:1014D800F4E0A368012B0AD00BBB244B1A6F22F04F
:1014E80001021A671A6F22F004021A6704E01F4A01
:1014F800136F43F001031367A36833B301F020FDB2
:1015080005461A4B1B6F13F0020FACD101F018FD02
:10151800401B41F288339842F3D90320CEE0052BD3
:1015280009D0124B1A6F22F001021A671A6F22F0C3
:1015380004021A67E0E70D4B1A6F42F004021A67BB
:101548001A6F42F001021A67D6E701F0F9FC054666
:10155800064B1B6F13F0020F85D001F0F1FC401B06
:1015680041F288339842F3D90320A7E00044025897
:1015780000480258594A136823F08073136001F039
:10158800DFFC0546554B1B6813F0007F06D001F0C1
:10159800D7FC401B0228F5D903208FE04F4B996AEE
:1015A8004F4A0A40A16AE06A41EA00110A439A6276
:1015B800226B013AC2F30802616B0139490289B210
:1015C8000A43A16B0139090401F4FE010A43E16BE6
:1015D8000139090601F0FE410A431A63DA6A22F06A
:1015E8000102DA62596B3F4A0A40A16C42EAC10221
:1015F8005A63DA6A22F00C02216C0A43DA62DA6A68
:1016080022F00202616C0A43DA62DA6A42F480323A
:10161800DA62DA6A42F40032DA62DA6A42F4802282
:10162800DA62DA6A42F00102DA621A6842F080721B
:101638001A6001F085FC0446284B1B6813F0007FF4
:1016480006D101F07DFC001B0228F5D9032035E006
:10165800002033E0002031E0204A916A106B012B12
:101668002DD001F00303A26A93422AD1C1F30511D8
:10167800E36A994227D1C0F30802236B013B9A42DF
:1016880023D1C0F34622636B013B9A421FD1C0F3BA
:101698000642A36B013B9A421BD1C0F30660E36B81
:1016A800013B984217D1002008E001207047012033
:1016B80004E0012002E0012000E0002038BD012004
:1016C800FCE70120FAE70120F8E70120F6E701200E
:1016D800F4E70120F2E70120F0E700BF00440258D8
:1016E8000CFCFFFF0700FFFF744B1B6903F0380376
:1016F800102B00F0DE80182B10D00BB1704870470B
:101708006E4B1B6813F0200F00F0D5806B4B1868E8
:10171800C0F3C1006B4B23FA00F0704710B4674A5E
:10172800916A01F00301946AC4F30510D36A03F0C7
:10173800010C536BC3F3CC030CFB03F307EE903A95
:10174800F8EE677A14F47C7F00F09380012965D065
:10175800022900F09180E1B107EE100AF8EE476A1D
:101768009FED596A86EE267A544B1B6BC3F3080328
:1017780006EE903AF8EE666A9FED546A67EE867A4E
:1017880076EEA77AF7EE006A77EEA67A27EE277A42
:1017980060E0136813F0200F23D011461268C2F3DB
:1017A800C102484BD34007EE103AF8EE476A07EEFD
:1017B800100AB8EE476A86EE867A0B6BC3F3080305
:1017C80006EE903AF8EE666A9FED406A67EE867A12
:1017D80076EEA77AF7EE006A77EEA67A27EE277AF2
:1017E80038E007EE100AF8EE476A9FED396A86EE90
:1017F800267A324B1B6BC3F3080306EE903AF8EED9
:10180800666A9FED326A67EE867A76EEA77AF7EE19
:10181800006A77EEA67A27EE277A1BE007EE100A11
:10182800F8EE476A9FED286A86EE267A234B1B6BF3
:10183800C3F3080306EE903AF8EE666A9FED236A52
:1018480067EE867A76EEA77AF7EE006A77EEA67AE2
:1018580027EE277A194B1B6BC3F34623013307EE98
:10186800903AF8EE677AC7EE276AFCEEE67A17EE4A
:10187800900A5DF8044B704707EE100AF8EE476AC5
:101888009FED146A86EE267A0C4B1B6BC3F3080394
:1018980006EE903AF8EE666A9FED0C6A67EE867A75
:1018A80076EEA77AF7EE006A77EEA67A27EE277A21
:1018B800D0E7094870470348704700BF0044025802
:1018C80000093D000090D0030024744A000000394C
:1018D8000024744C001BB74B00366E01002800F042
:1018E800328170B50D4604469B4B1B6803F00F030D
:1018F8008B420BD2984A136823F00F030B431360F3
:10190800136803F00F038B4240F01F81236813F024
:10191800040F0CD02269914B9B6903F070039A4223
:1019280005D98E498B6923F070031A438A612368AD
:1019380013F0080F0CD06269884BDB6903F0700361
:101948009A4205D98549CB6923F070031A43CA61C5
:10195800236813F0100F0CD0A269804BDB6903F4E5
:10196800E0639A4205D97D49CB6923F4E0631A43C1
:10197800CA61236813F0200F0CD0E269774B1B6A09
:1019880003F070039A4205D974490B6A23F0700377
:101998001A430A62236813F0020F0CD0E2686F4BF7
:1019A8009B6903F00F039A4205D96C498B6923F0B0
:1019B8000F031A438A61236813F0010F41D0674A65
:1019C800936923F47063A1680B4393616368022BE6
:1019D8000AD0032B27D0012B2CD0604A126812F0B2
:1019E800040F06D10120ADE0126812F4003F00F0A8
:1019F800AE805A490A6922F0070213430B6101F0CD
:101A08009FFA0646554B1B6903F038036268B3EB2F
:101A1800C20F16D001F094FA801B41F28833984225
:101A2800F0D903208EE04D4A126812F0007FE0D111
:101A3800012087E0494A126812F4807FD9D1012039
:101A480080E0236813F0020F0CD0E268434B9B69D7
:101A580003F00F039A4205D240498B6923F00F0324
:101A68001A438A613C4B1B6803F00F03AB420AD947
:101A7800394A136823F00F032B431360136803F0EC
:101A88000F03AB4265D1236813F0040F0CD0226911
:101A9800324B9B6903F070039A4205D22F498B6938
:101AA80023F070031A438A61236813F0080F0CD0DF
:101AB80062692A4BDB6903F070039A4205D2274911
:101AC800CB6923F070031A43CA61236813F0100F1F
:101AD8000CD0A269214BDB6903F4E0639A4205D27A
:101AE8001E49CB6923F4E0631A43CA61236813F0E3
:101AF800200F0CD0E269194B1B6A03F070039A425D
:101B080005D216490B6A23F070031A430A62FFF7DD
:101B1800EBFD12498B69C3F30323114AD35C03F02D
:101B28001F03D8408B6903F00F03D35C03F01F0336
:101B380020FA03F30B4A13600B4B18600B4B186821
:101B480001F09CF970BD012070470120FAE70120DF
:101B5800F8E70120F6E700BF0020005200440258D1
:101B68008042000804000020000000200C00002033
:101B780008B5FFF7B9FD0B4A9369C3F303230A4974
:101B8800CB5C03F01F0320FA03F3926902F00F0203
:101B9800885C00F01F0023FA00F0044A1060044A31
:101BA800136008BD00440258804200080400002069
:101BB8000000002008B5FFF7DBFF054BDB69C3F326
:101BC8000213044AD35C03F01F03D84008BD00BFCA
:101BD800004402588042000808B5FFF7C9FF054BCA
:101BE800DB69C3F30223044AD35C03F01F03D84024
:101BF80008BD00BF0044025880420008404B9B6A61
:101C080003F00303032B79D070B505460E463C4A12
:101C1800136823F08063136001F092F90446384B8F
:101C28001B6813F0006F06D001F08AF9031B022B22
:101C3800F5D9032070BD324B9A6A22F47C322968A8
:101C480042EA01329A626A68013AC2F30802A96854
:101C58000139490289B20A43E9680139090401F4E2
:101C6800FE010A4329690139090601F0FE410A43C8
:101C78009A63DA6A22F0C00269690A43DA62DA6AA8
:101C880022F02002A9690A43DA62DA6A22F0100215
:101C9800DA62D96B1B4A0A40E96942EAC102DA638F
:101CA800DA6A42F01002DA62C6B91A46DB6A43F40D
:101CB8000023D362124A136843F08063136001F073
:101CC8003FF904460E4B1B6813F0006F14D101F066
:101CD80037F9001B0228F5D90320ABE7012E05D000
:101CE800074AD36A43F40013D362E3E7044AD36A8A
:101CF80043F48013D362DDE700209BE7012070479F
:101D0800004402580700FFFF404B9B6A03F003039F
:101D1800032B79D070B505460E463C4A136823F06C
:101D28008053136001F00CF90446384B1B6813F01C
:101D3800005F06D001F004F9031B022BF5D903203C
:101D480070BD324B9A6A22F07C72296842EA0152CD
:101D58009A626A68013AC2F30802A968013949021D
:101D680089B20A43E9680139090401F4FE010A430A
:101D780029690139090601F0FE410A431A64DA6A41
:101D880022F4406269690A43DA62DA6A22F400726C
:101D9800A9690A43DA62DA6A22F48072DA62596C53
:101DA8001B4A0A40E96942EAC1025A64DA6A42F403
:101DB8008072DA62C6B91A46DB6A43F48003D362DA
:101DC800124A136843F08053136001F0B9F80446CF
:101DD8000E4B1B6813F0005F14D101F0B1F8001B23
:101DE8000228F5D90320ABE7012E05D0074AD36AAC
:101DF80043F08073D362E3E7044AD36A43F40003F1
:101E0800D362DDE700209BE70120704700440258B9
:101E18000700FFFFF8B50446036813F0006F30D0E1
:101E2800436EB3F5001F26D00ED8EBB1B3F5801F73
:101E380007D102210430FFF7E1FE054645B12E46E1
:101E480021E0012635461EE0B3F5401F09D10025E3
:101E5800954A136D23F44013616E0B4313650026F6
:101E680011E0012635460EE08F4AD36A43F4003369
:101E7800D3620025ECE702212430FFF745FF054631
:101E8800DCE700263546236813F4807F14D0636DA1
:101E9800042B30D8DFE803F0032228080800824A20
:101EA800D36A43F40033D36245BB7F4A136D23F0F2
:101EB8000703616D0B431365236813F4007F2FD06C
:101EC800A36D802B49D01ED8002B40D0402B17D1B2
:101ED8000021201DFFF792FE054619E00021201D74
:101EE800FFF78CFE0546DFE7002104F12400FFF729
:101EF8000BFF0546D8E701263546DDE72E46DBE72A
:101F0800012635460CE0C02B02D0B3F5807F1BD1EB
:101F180055BB654A136D23F4E073A16D0B4313653C
:101F2800236813F4806F45D0D4F8A430B3F5800F3C
:101F380038D01ED883B3B3F5001F17D10021201D58
:101F4800FFF75CFE05461AE001263546E8E7564AE3
:101F5800D36A43F40033D362DAE7002104F12400A2
:101F6800FFF7D2FE0546D3E72E46D9E701263546C8
:101F780020E0B3F5C00F02D0B3F5000F09D1C5B901
:101F8800494A936D23F46003D4F8A4100B43936576
:101F980010E0012635460DE0434AD36A43F4003386
:101FA800D362ECE7002104F12400FFF7ADFE0546FB
:101FB800E5E72E46236813F4006F23D0D4F8A83041
:101FC800B3F1007F41D00DD8002B38D0B3F1807F1A
:101FD80005D10021201DFFF711FE054608E0012666
:101FE80035460FE0B3F1407F02D0B3F1806F23D1C3
:101FF800002D31D12C4A936D23F0E063D4F8A8105A
:102008000B439365236813F0007F2ED0A36C202B1D
:102018003FD026D833B1102B20D1234AD36A43F4BA
:102028000033D362002D3AD11F4AD36C23F030031A
:10203800A16C0B43D36418E001263546E2E71A4A3F
:10204800D36A43F40033D362D2E7002104F12400B9
:10205800FFF75AFE0546CBE72E46D3E7012635465D
:1020680003E0302BDED001263546236813F4805F69
:102078002BD0E36DB3F5005F4CD017D8002B43D0BD
:10208800B3F5805F0DD10021201DFFF7B7FD054690
:1020980012E00221201DFFF7B1FD0546C2E72E46DA
:1020A800E3E70126354610E000440258B3F5405FE7
:1020B80002D0B3F5804F24D1002D32D1754A136D6B
:1020C80023F4E043E16D0B431365236813F4005FC9
:1020D80037D0236EB3F5003F51D027D83BB1B3F5C5
:1020E800803F20D10121201DFFF788FD0546002DE6
:1020F8004CD1684A136D23F4E023216E0B4313651A
:102108001FE001263546E0E7624AD36A43F400330C
:10211800D362D1E7002104F12400FFF7F5FD05465D
:10212800CAE72E46D1E7012635460AE0B3F5802FE7
:10213800DDD0B3F5A02FDAD0B3F5403FD7D00126D4
:102148003546236813F4804F30D0D4F8AC30B3F15F
:10215800005F44D01FD83BB1B3F1805F18D1012193
:10216800201DFFF74BFD0546002D3FD1494A936DD1
:1021780023F0E043D4F8AC100B43936516E001213B
:1021880004F12400FFF7C0FD0546B0E72E46D8E766
:10219800012635460AE0B3F1804FE5D0B3F1A04FF0
:1021A800E2D0B3F1405FDFD001263546236813F44F
:1021B800004F09D0E36EB3F1805F19D0B3F1005F2F
:1021C80024D0D3B101263546236813F0807F32D05E
:1021D800636C032B59D8DFE803F02621522601212E
:1021E80004F12400FFF790FD0546BDE72E46DDE724
:1021F800284AD36A43F40033D3626DB9254A136D74
:1022080023F04053E16E0B431365DDE70121201DE8
:10221800FFF7F4FC0546F0E72E46D5E71D4AD36ADA
:1022280043F40033D3629DBB1A4AD36C23F00303F3
:10223800616C0B43D364236813F4800F2CD123689B
:1022480013F0010F00F0A380A36F282B00F29D80EC
:10225800DFE803F08B9B9B9B9B9B9B9B869B9B9B9D
:102268009B9B9B9B949B9B9B9B9B9B9B8B9B9B9BCD
:102278009B9B9B9B8B9B9B9B9B9B9B9B8B00022174
:10228800201DFFF7BBFC0546CDE701263546D2E702
:102298002E46D0E7004402588F4A136843F48073EF
:1022A800136000F04DFE07468B4B1B6813F4807FCC
:1022B80005D100F045FEC01B6428F5D90325002D83
:1022C8004AD1864B1B6FD4F8B020534013F4407F9B
:1022D8000CD0824B1A6F22F44072196F41F480318E
:1022E8001967196F21F4803119671A67D4F8B0306B
:1022F800B3F5807F15D08DBBD4F8B03003F44072AD
:10230800B2F5407F1ED0754A136923F47C531361DC
:1023180072490B6FD4F8B020C2F30B0213430B675A
:102328008DE700F00DFE07466C4B1B6F13F0020F94
:10233800E1D100F005FEC01B41F288339842F3D981
:102348000325D8E76548026922F47C52644901EA0A
:10235800131313430361DBE72E4670E72E466EE73F
:102368000121201DFFF74AFC0546E5B95B4A536D7C
:1023780023F03803A16F0B43536508E0012104F1F2
:102388002400FFF7C1FC0546EFE701263546236820
:1023980013F0020F16D0636F052B27D8DFE803F080
:1023A8000A051F0A0A0A2E46F1E70121201DFFF738
:1023B80025FC0546EDB9494A536D23F00703616FC3
:1023C8000B435365236813F0040F22D0D4F89030E0
:1023D800052B43D8DFE803F0140F3B141414012134
:1023E80004F12400FFF790FC0546E3E70126354693
:1023F800E8E72E46E6E70121201DFFF7FFFB05462B
:102408007DBB364A936D23F00703D4F890100B4335
:102418009365236813F0200F33D0D4F88C30B3F1D0
:10242800005F4CD022D83BB1B3F1805F1BD10021B3
:10243800201DFFF7E3FB0546002D47D1274A536DC2
:1024480023F0E043D4F88C100B43536519E00121C5
:1024580004F12400FFF758FC0546D1E7012635466C
:10246800D7E72E46D5E7012635460AE0B3F1804F77
:10247800E2D0B3F1A04FDFD0B3F1405FDCD001264A
:102488003546236813F0400F37D0D4F89830B3F5A9
:10249800006F52D026D83BB1B3F5806F18D1002118
:1024A800201DFFF7ABFB0546002D4DD10B4A936D60
:1024B80023F4E053D4F898100B4393651DE00221F0
:1024C80004F12400FFF720FC0546B5E72E46D8E7BF
:1024D8000126354611E000BF004802580044025862
:1024E800CFFFFF00B3F5805FDED0B3F5A05FDBD090
:1024F800B3F5406FD8D001263546236813F0800F16
:1025080032D0D4F89C30B3F5804F00F09D8020D8AD
:102518003BB1B3F5005F19D10021201DFFF76EFB19
:102528000546002D40F09780A54A936D23F460433B
:10253800D4F89C100B43936516E0022104F12400A3
:10254800FFF7E2FB0546AFE72E46D6E701263546FC
:102558000AE0B3F5004FE4D0B3F5204FE1D0B3F56E
:10256800C04FDED001263546236813F0080F0CD083
:10257800D4F88030B3F5805F6FD0914A536D23F45F
:102588004053D4F880100B435365236813F0100FA1
:102598000CD0D4F89430B3F5807F67D0884A936D17
:1025A80023F44073D4F894100B439365236813F411
:1025B800002F0BD0D4F8A030B3F5803F6ED0B3F520
:1025C800003F61D0002B5AD001263546236813F40A
:1025D800802F0CD0D4F88430B3F5001F76D0B3F533
:1025E800401F69D0B3F5801F61D0012635462368A6
:1025F80013F4803F07D0E36C002B70D0B3F5803F15
:102608007BD001263546236813F0005F7DD123680F
:1026180013F4003F00F08680E36FB3F5807F00F08D
:10262800C6807CD9B3F5007F03D0B3F5407F40F076
:10263800BC80002D40F0C180614A536D23F4407383
:10264800E16F0B4353656DE0022104F12400FFF7AD
:102658005BFB054665E72E4686E7022104F1240068
:10266800FFF752FB002888D0012686E7022104F1F3
:102678002400FFF749FB002890D001268EE70021AF
:10268800201DFFF7BBFA05467DB94D4A936D23F42B
:102698004033D4F8A0100B43936597E7022104F167
:1026A8002400FFF731FB0546EEE72E468EE7444A45
:1026B800D36A43F40033D3627DB9414A536D23F49E
:1026C8004013D4F884100B43536590E7012104F1BB
:1026D8002400FFF719FB0546EEE72E4687E7384A40
:1026E800D36A43F40033D3626DB9354AD36C23F40B
:1026F8008033E16C0B43D36485E70221201DFFF78B
:102708007DFA0546F0E72E467DE7022104F1240014
:10271800FFF7FAFA00283FF47AAF012677E7002B93
:1027280087D00126236813F4801F06D0244A136D2E
:1027380023F00043216F0B431365236813F0805F78
:1027480007D01F4A136923F48043D4F8B4100B430D
:102758001361236813F4001F06D0194A136D23F080
:102768008073A16E0B431365236813F0804F09D063
:10277800134B1A6922F400421A611A69D4F8B81086
:102788000A431A612368002B1CDB236813F4000F2B
:1027980007D00B4A536D23F44003D4F888100B4339
:1027A800536506B101263046F8BD0126BAE7044A4A
:1027B800D36A43F40033D3623BE72E46B2E700BF47
:1027C80000440258034AD36C23F04053216D0B4355
:1027D800D364DAE70044025808B5FFF7C9F9054B96
:1027E8001B6AC3F30213044AD35C03F01F03D840E7
:1027F80008BD00BF004402588042000810B5774A5F
:10280800916A946AC4F3053ED36AC3F3001CD36B80
:10281800C3F3CC030CFB03F314F47C3F00F0D88023
:1028280001F0030107EE903AF8EE677A012965D0C6
:10283800022900F0B080E1B107EE10EAB8EE477A5D
:102848009FED676AC6EE076A644B9B6BC3F3080388
:1028580007EE103AB8EE477A9FED626A67EE867A1D
:1028680077EE277AB7EE007A77EE877A66EEA76A70
:1028780060E0136813F0200F23D011461268C2F3EA
:10288800C102594BD34007EE103AB8EE477A06EE2C
:1028980090EAB8EE666AC7EE066A8B6BC3F3080364
:1028A80007EE103AB8EE477A9FED4E6A67EE867AE1
:1028B80077EE277AB7EE007A77EE877A66EEA76A20
:1028C80038E007EE10EAB8EE477A9FED486AC6EEA0
:1028D800076A424B9B6BC3F3080307EE103AB8EE46
:1028E800477A9FED406A67EE867A77EE277AB7EEE9
:1028F800007A77EE877A66EEA76A1BE007EE10EAA1
:10290800B8EE477A9FED366AC6EE076A334B9B6B83
:10291800C3F3080307EE103AB8EE477A9FED316A21
:1029280067EE867A77EE277AB7EE007A77EE877ABF
:1029380066EEA76A294A936BC3F3462307EE103A5B
:10294800B8EE477AB7EE006A37EE067AC6EE877AAF
:10295800FCEEE77AC0ED007A936BC3F3064307EE0B
:10296800103AB8EE477A37EE067AC6EE877AFCEE6A
:10297800E77AC0ED017A936BC3F3066307EE903AEA
:10298800F8EE677A77EE867A86EEA77ABCEEC77A93
:1029980080ED027A10BD07EE10EAB8EE477A9FED97
:1029A800146AC6EE076A0D4B9B6BC3F3080307EE68
:1029B800103AB8EE477A9FED0B6A67EE867A77EEA3
:1029C800277AB7EE007A77EE877A66EEA76AB1E7DC
:1029D8000023036043608360DCE700BF00440258C3
:1029E8000024744A000000390090D0030024744C7D
:1029F800001BB74B10B5774A916A946AC4F3055E19
:102A0800D36AC3F3002C536CC3F3CC030CFB03F35E
:102A180014F07C7F00F0D88001F0030107EE903AB3
:102A2800F8EE677A012965D0022900F0B080E1B19B
:102A380007EE10EAB8EE477A9FED676AC6EE076AB6
:102A4800644B1B6CC3F3080307EE103AB8EE477AE1
:102A58009FED626A67EE867A77EE277AB7EE007A9C
:102A680077EE877A66EEA76A60E0136813F0200FA6
:102A780023D011461268C2F3C102594BD34007EE66
:102A8800103AB8EE477A06EE90EAB8EE666AC7EEF4
:102A9800066A0B6CC3F3080307EE103AB8EE477AE0
:102AA8009FED4E6A67EE867A77EE277AB7EE007A60
:102AB80077EE877A66EEA76A38E007EE10EAB8EE96
:102AC800477A9FED486AC6EE076A424B1B6CC3F310
:102AD800080307EE103AB8EE477A9FED406A67EEB2
:102AE800867A77EE277AB7EE007A77EE877A66EEFF
:102AF800A76A1BE007EE10EAB8EE477A9FED366A40
:102B0800C6EE076A334B1B6CC3F3080307EE103A93
:102B1800B8EE477A9FED316A67EE867A77EE277AC4
:102B2800B7EE007A77EE877A66EEA76A294A136CC1
:102B3800C3F3462307EE103AB8EE477AB7EE006AB9
:102B480037EE067AC6EE877AFCEEE77AC0ED007AB1
:102B5800136CC3F3064307EE103AB8EE477A37EE24
:102B6800067AC6EE877AFCEEE77AC0ED017A136C36
:102B7800C3F3066307EE903AF8EE677A77EE867A43
:102B880086EEA77ABCEEC77A80ED027A10BD07EE12
:102B980010EAB8EE477A9FED146AC6EE076A0D4B45
:102BA8001B6CC3F3080307EE103AB8EE477A9FEDA3
:102BB8000B6A67EE867A77EE277AB7EE007A77EEB9
:102BC800877A66EEA76AB1E70023036043608360F3
:102BD800DCE700BF004402580024744A00000039B2
:102BE8000090D0030024744C001BB74BF0B583B0A1
:102BF80000236BE085685E000324B44025EA0405E1
:102C0800CC68B4402C438460446824EA0C0C4C68BB
:102C1800C4F300149C4044EA0C04446068E0DD08F6
:102C2800083550F8256003F007044FEA840C0F2498
:102C380004FA0CF426EA040E0C6904FA0CF444EACB
:102C48000E0440F825406BE0092400E0002404FA53
:102C58000EF42C430CF1020C694D45F82C404FF052
:102C6800B0442568D44325EA02064F6817F4801F4C
:102C780001D042EA05064FF0B0452E606D6804EABF
:102C880005064F6817F4001F01D042EA05064FF009
:102C9800B0456E60D5F8845004EA05064F6817F40D
:102CA800003F01D042EA05064FF0B045C5F8846000
:102CB800D5F880502C404E6816F4803F01D042EA87
:102CC80005044FF0B042C2F8804001330A6832FA76
:102CD80003F400F092804FF0010C0CFA03FC1CEA9C
:102CE8000202F2D04C6804F00304013C012C81D9A3
:102CF8004C6804F00304032C0CD0C4685D004FF04A
:102D0800030C0CFA05FC24EA0C0C8C68AC4044EA71
:102D18000C04C4604C6804F00304022C3FF47FAF39
:102D280004684FEA430E4FF0030C0CFA0EFC24EA39
:102D38000C0C4C6804F0030404FA0EF444EA0C0486
:102D480004604C6814F4403FBFD02E4CD4F8F450C3
:102D580045F00205C4F8F450D4F8F44004F0020435
:102D68000194019C4FEA930C0CF10205244C54F891
:102D7800255003F003044FEA840E0F2404FA0EF4DE
:102D880025EA0405204CA0423FF460AF04F58064B6
:102D9800A04222D004F58064A04220D004F58064CB
:102DA800A0421ED004F58064A0421CD004F58064C3
:102DB800A0421AD004F58064A04218D004F58064BB
:102DC800A04216D004F58064A04214D004F58064B3
:102DD800A0423FF439AF0A2439E7012437E7022437
:102DE80035E7032433E7042431E705242FE70624D5
:102DF8002DE707242BE7082429E703B0F0BD00BF1F
:102E0800000400580044025800000258036919429F
:102E180001D001207047002070470AB181617047D6
:102E28000904816170470000134BDB6813F0040F3D
:102E380007D1114BDB6803F0070383421AD0012046
:102E4800704710B50C4AD36823F007031843D060C5
:102E580000F076F80446084B5B6813F4005F07D16E
:102E680000F06EF8001BB0F57A7FF4D9012000E07D
:102E7800002010BD0020704700480258104B1B78F6
:102E88000BB90120704710B504464FF47A70B0FBB7
:102E9800F3F30C4A1068B0FBF3F0FEF7D7F868B903
:102EA8000F2C01D901200AE0002221464FF0FF3003
:102EB800FEF796F8044B1C60002000E0012010BDCE
:102EC80008000020000000200C00002010B503209E
:102ED800FEF774F8FEF708FC0F498B69C3F3032368
:102EE8000E4AD35C03F01F03D8408B6903F00F032D
:102EF800D35C03F01F0320FA03F3094A1360094B5C
:102F080018600F20FFF7BAFF10B10124204610BD4A
:102F18000446FDF7BBFEF9E700440258804200086A
:102F28000400002000000020034B1B78034A1168AE
:102F38000B441360704700BF08000020DC0100202C
:102F4800014B1868704700BFDC010020014B18686E
:102F5800000C70470010005C03689A6912F0020FB9
:102F680001D000229A6203689A6912F0010F03D116
:102F78009A6942F001029A61704710B4019CC1F34A
:102F8800090141EA02411943214321F00041026845
:102F98005368640D04F4806444F07F7444F4583436
:102FA80044F47F7444F0030423EA04042143516089
:102FB8005DF8044B70472DE9F041044603689F69AA
:102FC80017F010074ED00E4690461022DA61002501
:102FD8002368986910F0200F3DD1002D3BD1B6F140
:102FE800FF3FF5D0FFF7ACFFA0EB0800B04201D8D7
:102FF800002EEDD121684A6802F4804294F84230EC
:10300800DBB2886910F4004F04D0203B18BF0123BD
:1030180002B9C3B923689B6913F0200FD8D1FFF711
:103028008FFFA0EB08001928F4D9636C43F0200344
:103038006364202384F84130002384F8423084F804
:1030480040300125E6E74B6843F480434B60FFF7C7
:1030580077FF8046DEE7002D40D12022DA61042781
:10306800012500E000252268936913F4807F05D0CC
:1030780047F001074FF48071D161012513F4806F87
:1030880006D047F0080722684FF48061D161012516
:1030980013F4007F24D047F0020723684FF400722E
:1030A800DA6101252046FFF757FF2268536823F0AD
:1030B800FF7323F48B3323F4FF7323F0010353606E
:1030C800636C1F436764202384F84130002384F82D
:1030D800423084F840302846BDE8F0810427C2E732
:1030E800002DF8D0DEE770B504460D461646236875
:1030F8009B6913F0020F1DD1324629462046FFF77F
:103108005AFFC8B9B5F1FF3FF1D0FFF719FF801B8F
:10311800A84201D8002DEAD1636C43F02003636410
:10312800202384F84130002384F8423084F840306A
:10313800012000E0002070BD0120FCE72DE9F041EE
:103148000646884617461D463468A46938EA0403CB
:103158000CBF4FF0010C4FF0000CBC4518D1B5F175
:10316800FF3FF1D0FFF7ECFE069BC01AA84201D83A
:10317800002DE9D1736C43F020037364202386F893
:103188004130002386F8423086F84030012000E0C4
:103198000020BDE8F08100002DE9F04182B004462E
:1031A80090461D46089E099F184B00930023EAB2DB
:1031B800FFF7E3FE3A4631462046FFF794FFF8B999
:1031C800012D0ED123685FFA88F29A620097334680
:1031D800002240212046FFF7B1FFA8B902B0BDE8A0
:1031E800F08123684FEA18229A623A46314620460F
:1031F800FFF779FF30B923685FFA88F29A62E5E74A
:103208000120EBE70120E9E70120E7E70020008043
:1032180070B505460C4616462B689B6913F0200FBF
:103228001AD1324621462846FFF7C5FEB0B9FFF746
:1032380087FE801BA04201D8002CEDD16B6C43F0B7
:1032480020036B64202385F84130002385F8423041
:1032580085F84030012070BD0020FCE70120FAE726
:10326800002857D010B5044690F84130002B41D0C3
:10327800242384F841302268136823F00103136083
:103288006368226823F0706313612268936823F4EB
:1032980000439360E368012B31D0A368226843F4AC
:1032A80004439360E368022B2FD0226851681A4BBD
:1032B8000B4353602268D36823F40043D360236927
:1032C80062691343A169226843EA0123D360E36971
:1032D800216A22680B4313602268136843F00103D4
:1032E800136000206064202384F84130206384F850
:1032F800420010BD80F84030FDF7DAFCB8E7A3685B
:10330800226843F400439360CCE723684FF40062DB
:103318005A60CAE701207047008000022DE9F04F8B
:1033280083B00D46BDF834A00E9F90F84110C9B285
:10333800202940F0BD800446904699460C9BBAF17E
:10334800000F18BF002B16D090F84030012B00F06A
:10335800B3804FF0010B80F840B0FFF7F1FD06464F
:10336800009019235A464FF400412046FFF7E6FE25
:1033780030B101209DE04FF400734364012098E0D0
:10338800222384F84130402384F8423000236364C8
:103398000C9A6262A4F82AA06363019600974B46D0
:1033A800424629462046FFF7F7FE70B9638D9BB267
:1033B800FF2B0FD9FF222285434B00934FF08073D8
:1033C80029462046FFF7D9FD21E0002384F8403044
:1033D80058466EE0628D92B222853B4B00934FF0C7
:1033E8000073D2B229462046FFF7C7FD0FE0628D71
:1033F80092B22285002300934FF00073D2B229467F
:103408002046FFF7BAFD638D9BB2002B34D000969F
:103418003B46002204212046FFF790FE00284DD1AC
:1034280023685A6A636A1A70636A01336362228D79
:10343800013A92B22285638D9BB2013B9BB26385B0
:10344800638D9BB2002BDED0002ADCD100963B4670
:1034580080212046FFF772FE90BB638D9BB2FF2B45
:10346800C5D9FF222285002300934FF08073294697
:103478002046FFF782FDC6E7324639462046FFF769
:10348800C7FEF8B923682022DA6121684B6823F067
:10349800FF7323F48B3323F4FF7323F001034B6092
:1034A80084F84120002384F8423084F8403000E05A
:1034B800022003B0BDE8F08F0220FAE70120F8E708
:1034C8000120F6E70120F4E70024008090F841305D
:1034D800DBB2202B24D190F84030012B22D00123DD
:1034E80080F84030242380F841300268136823F0C4
:1034F800010313600268136823F4805313600268A1
:103508001368194311600268136843F001031360DC
:10351800202380F84130002380F840301846704757
:10352800022070470220704790F84130DBB2202B10
:1035380022D190F84030012B20D0012380F8403070
:10354800242380F841300268136823F001031360D4
:103558000268136823F4706343EA0121116002686A
:10356800136843F001031360202380F841300023DF
:1035780080F8403018467047022070470220704794
:1035880070B586B0044601688368026913434269CE
:103598001343C26913430868884A024013430B6007
:1035A8002268536823F44053E1680B435360A169D0
:1035B8002268834B9A4201D0236A19439068814B51
:1035C80003400B4393602268D36A23F00F03616AB8
:1035D8000B43D36222687C4B9A4221D07B4B9A42A0
:1035E80000F08C807A4B9A4200F0A280794B9A4284
:1035F80000F0B580784B9A4200F0C880774B9A4229
:1036080000F0F480764B9A4200F01981754B9A428B
:1036180000F02C816A4B9A4200F03F81802333E00E
:10362800714B5B6D03F03803282B65D8DFE813F086
:10363800290064006400640064006400640064009D
:103648004D01640064006400640064006400640068
:103658002B0064006400640064006400640064007B
:103668005E00640064006400640064006400640038
:103678006000640064006400640064006400640026
:103688006200012300E008234D498A4200F02F819F
:10369800E069B0F5004F00F0AF81202B00F20782FF
:1036A800202B00F25182DFE813F01E0224024F02A1
:1036B8004F0227024F024F024F022C024F024F02C5
:1036C8004F024F024F024F024F0231024F024F0288
:1036D8004F024F024F024F024F024F024F024F025A
:1036E8004F024F024F024F024F023D021023CBE719
:1036F8002023C9E74023C7E78023C5E73A4B5B6D22
:1037080003F00703052B11D8DFE813F00600E100EA
:1037180008000A000C000E000023B5E70823B3E7F1
:103728001023B1E72023AFE74023ADE78023ABE7C1
:103738002D4B5B6D03F00703052B0ED8DFE803F074
:1037480003C90507090B00239EE708239CE71023FC
:103758009AE7202398E7402396E7802394E7224BB3
:103768005B6D03F00703052B0ED8DFE803F003B405
:103778000507090B002387E7082385E7102383E75C
:10378800202381E740237FE780237DE7164B5B6D8D
:1037980003F00703052B0ED8DFE803F0039F0507A6
:1037A800090B002370E708236EE710236CE720233A
:1037B8006AE7402368E7802366E700BFF369FFCF25
:1037C800000C0058FFF4FF110010014000440040B5
:1037D80000480040004C00400050004000140140E8
:1037E80000780040007C0040004402587D4B5B6D2F
:1037F80003F03803282B20D8DFE803F0151F1F1F1C
:103808001F1F1F1F711F1F1F1F1F1F1F171F1F1F76
:103818001F1F1F1F191F1F1F1F1F1F1F1B1F1F1FBA
:103828001F1F1F1F1D0001232EE708232CE710234D
:103838002AE7202328E7402326E7802324E7694B4B
:103848005B6D03F00703052B0ED8DFE803F0034A8E
:103858000507090B002317E7082315E7102313E7CB
:10386800202311E740230FE780230DE75D4B5B6DB5
:1038780003F00703052B0ED8DFE803F0033505072F
:10388800090B002300E70823FEE61023FCE62023AB
:10389800FAE64023F8E68023F6E603F50E339B6D3F
:1038A80003F00703052B0ED8DFE803F0031F050715
:1038B800090B0223E8E60823E6E61023E4E62023C2
:1038C800E2E64023E0E68023DEE60423DCE6042388
:1038D800DAE60423D8E60423D6E60423D4E6042350
:1038E800D2E60423D0E60423CEE60423CCE6202B3C
:1038F80027D8022BC0F01A81023B1E2B00F2188138
:10390800DFE813F0500016015600160116011601E3
:103918005B001601160116011601160116011601A3
:10392800600016011601160116011601160116018E
:1039380016011601160116011601160116011601C7
:103948006C00402B2CD14FF40040626A264B33F8B0
:103958001220B0FBF2F3656805EB4501994200F2CD
:10396800E980B3EB053F00F2E78000263346314695
:10397800FCF7AEFC090241EA106100026B08C018AE
:103988002A46334641F10001FCF7A2FCA0F540723B
:10399800164B9A4200F2D2802368D8603046D4E0B1
:1039A8000120D2E0FEF718FF0028CED10020CCE09D
:1039B80003A8FEF723FF0498F6E76846FFF71AF80E
:1039C8000198F1E7074B1B6813F0200F08D0054B4F
:1039D8001B68C3F3C1030648D840E5E70548B4E7C8
:1039E8000348B2E70044025890420008FFFC0F0069
:1039F8000090D00300093D00202B15D8202B00F2A1
:103A08009F80DFE803F031379D9D3A9D9D9D3F9D46
:103A18009D9D9D9D9D9D449D9D9D9D9D9D9D9D9D27
:103A28009D9D9D9D9D9D5000402B1BD1626A4D4BD5
:103A380033F81230B0FBF3F06268530803EB400030
:103A4800B0FBF2F0A0F110024FF6EF739A4279D86A
:103A580083B223F00F03C0F3420018432368D860F1
:103A6800002072E0012070E0FEF7A4F80028DDD104
:103A780000206AE0FEF7B0F8F8E703A8FEF7BEFEFC
:103A88000498F3E76846FEF7B5FF0198EEE7364B72
:103A98001B6813F0200F08D0334B1B68C3F3C10316
:103AA8003248D840E2E73248C0E73048BEE7402B0A
:103AB80017D14FF40040626A2A4B33F81230B0FB3A
:103AC800F3F0636800EB5300B0FBF3F0A0F11002D1
:103AD8004FF6EF739A4242D8236880B2D86000202C
:103AE80033E0012031E0FEF765F80028E3D100203B
:103AF8002BE0FEF771F8F8E703A8FEF77FFE0498BD
:103B0800F3E76846FEF776FF0198EEE7164B1B6869
:103B180013F0200F08D0144B1B68C3F3C1031348DC
:103B2800D840E2E71248C6E71048C4E701200CE095
:103B380001200AE0012008E0012006E0012004E05D
:103B4800012002E0012000E001200123A4F86A30EE
:103B5800A4F8683000232367636706B070BD0120AE
:103B6800F3E700BF90420008004402580090D003D9
:103B780000093D00836A13F0010F06D002685368FC
:103B880023F40033C16A0B435360836A13F0020FB6
:103B980006D00268536823F48033016B0B435360EB
:103BA800836A13F0040F06D00268536823F4802355
:103BB800416B0B435360836A13F0080F06D0026809
:103BC800536823F40043816B0B435360836A13F0FB
:103BD800100F06D00268936823F48053C16B0B431F
:103BE8009360836A13F0200F06D00268936823F469
:103BF8000053016C0B439360836A13F0400F0AD0A3
:103C08000268536823F48013416C0B435360436C80
:103C1800B3F5801F0BD0836A13F0800F06D00268BB
:103C2800536823F40023C16C0B4353607047026848
:103C3800536823F4C003816C0B435360EBE72DE911
:103C4800F84305460F4616469946DDF820802C684D
:103C5800E46937EA04030CBF4FF0010C4FF0000C85
:103C6800B44557D1B8F1FF3FF1D0FFF769F9A0EBA0
:103C7800090040452FD8B8F1000F2CD02B681A68DE
:103C880012F0040FE3D0DA6912F4006FDFD04FF4BA
:103C980000621A622A6852E8003F23F4D07342E8AF
:103CA80000310029F6D12A6802F1080353E8003FE1
:103CB80023F00103083242E800310029F3D1202320
:103CC800C5F88430C5F88830C5F88C30002385F8ED
:103CD800803003201FE02A6852E8003F23F4D073A5
:103CE80042E800310029F6D12A6802F1080353E8B6
:103CF800003F23F00103083242E800310029F3D1E4
:103D08002023C5F88430C5F88830002385F8803032
:103D1800032000E00020BDE8F8832DE9F04383B0DC
:103D28001E46D0F88830202B40F0818004460D468E
:103D38009046002A18BF00297DD090F88030012BCA
:103D48007BD0012380F880300023C0F88C302222F9
:103D5800C0F88820C366FFF7F3F80746A4F85C802C
:103D6800A4F85E80A368B3F5805F06D0A3B9226982
:103D780072B9FF22A4F8602014E0226922B940F247
:103D8800FF12A4F860200DE0FF22A4F8602009E0EB
:103D98007F22A4F8602005E0B3F1805F0DD00022F7
:103DA800A4F86020B4F86080B3F5805F0FD04FF0BE
:103DB8000009002384F880301EE022691AB97F22A6
:103DC800A4F86020EEE73F22A4F86020EAE7236920
:103DD80013B14FF00009ECE7A9460025E9E723688D
:103DE8005B6A08EA030329F8023BB4F85E2092B242
:103DF800013A92B2A4F85E20B4F85E309BB28BB15F
:103E080000963B46002220212046FFF718FFB0B954
:103E1800002DE4D023685A6A5FFA88F3134005F846
:103E2800013BE2E72023C4F88830002000E00220AC
:103E380003B0BDE8F0830120FAE70220F8E7032089
:103E4800F6E730B583B004460023C0F88C30FFF79E
:103E580077F805462268126812F0080F0FD1236818
:103E68001B6813F0040F18D12023C4F88430C4F859
:103E780088300020E06684F8800003B030BD6FF021
:103E88007E430093034600224FF400112046FFF7BB
:103E9800D6FE0028E3D00320EFE76FF07E430093BF
:103EA8002B4600224FF480012046FFF7C8FE002869
:103EB800DAD00320E1E778B310B50446D0F88430AF
:103EC8000BB32423C4F884302268136823F0010359
:103ED80013602046FFF754FB012813D0A36ABBB92F
:103EE8002268536823F4904353602268936823F050
:103EF8002A0393602268136843F001031360204685
:103F0800FFF79FFF10BD80F88030FCF7A7FFD8E7C8
:103F18002046FFF72FFEE3E701207047436E2BB9D9
:103F28000123A0F86A30A0F86830704730B40368FD
:103F38009A68C2F342629968490F094D6B5C1B018C
:103F4800084C615C93FBF1F3A0F86A30AB5C1B0191
:103F5800A25C93FBF2F3A0F8683030BC704700BF56
:103F6800B0420008A842000890F88030012B18D011
:103F7800012380F880302423C0F8843003681A684D
:103F8800196821F00101196022F0005200234366EC
:103F980001680A602022C0F8842080F88030184622
:103FA80070470220704738B590F88030012B1DD03B
:103FB8000446012380F880302423C0F88430036845
:103FC8001D681A6822F001021A600268936823F0DB
:103FD800604319439160FFF7A1FF23681D60202308
:103FE800C4F88430002084F8800038BD0220FCE743
:103FF80038B590F88030012B1DD00446012380F895
:1040080080302423C0F8843003681D681A6822F0C1
:1040180001021A600268936823F060631943916093
:10402800FFF77CFF23681D602023C4F8843000203C
:1040380084F8800038BD0220FCE7C36B5B09C068C8
:104048000830C00803FB000070470000002800F09B
:10405800A38070B50446002383620568524B534E13
:104068009D4218BFB54214BF0126002607D0A3F50C
:1040780074439D4203D0C3680F2B00F28F80204603
:10408800FFF7DBFF2EB14A4B9D4202D0082800F211
:104098008780454A454B9D4218BF954203D003F59A
:1040A80080639D4201D110287CD894F88130002B80
:1040B80059D0022384F881302268136823F0010361
:1040C800136021688A6802F4F812A369B3F1806F5B
:1040D8004FD0E369A16A0B431343E26B1343E168D2
:1040E80022680B439360636B626A1343A26B1343AA
:1040F800A26913432269134362691343226A134373
:1041080062681343E26C1343A2681343A26C13431F
:10411800A16D22680B43D36063686BB9226893680A
:1041280023F4C05343F4006393602268936823F434
:10413800C06343F4806393602268136D23F0010326
:104148001365636813F4800F06D02268D36823F0E0
:104158000043616D0B43D3600020C4F88400012341
:1041680084F8813070BD84F880302046FCF720FE4A
:104178009FE76368B3F5800F06D0002BA9D1A36B26
:10418800B3F1805FA5D102E0A06B0028F5D10B68E0
:1041980043F480530B609CE7012070470120E1E75E
:1041A8000120DFE70120DDE7003001400038004052
:1041B800003C0040DFF834D0FCF79AFE0C480D496B
:1041C8000D4A002302E0D458C4500433C4188C426A
:1041D800F9D30A4A0A4C002301E013600432A242D0
:1041E800FBD300F011F8FCF7D7FB70470000022062
:1041F8000000002010000020C84200081000002025
:10420800E0010020FEE7000070B50D4D0D4C641B69
:10421800A4100026A64209D10B4D0C4C00F020F842
:10422800641BA4100026A64205D170BD55F8043BB6
:1042380098470136EEE755F8043B98470136F2E710
:10424800C0420008C0420008C0420008C44200083A
:1042580002440346934200D1704703F8011BF9E773
:10426800F8B500BFF8BC08BC9E467047F8B500BF5B
:08427800F8BC08BC9E4670472B
:1042800000000000010203040102030406070809FC
:10429000010002000400060008000A000C001000E3
:1042A0002000400080000001080402040801010110
:0842B0000101010307010000F8
:0842B80050C0FF7F010000006F
:0442C000BD02000833
:0442C4009902000853
:1042C8000090D0030090D00301000000100000000F
:04000005080041BDF1
:00000001FF
